{
  "_format": "hh-sol-artifact-1",
  "contractName": "FishyScam",
  "sourceName": "contracts/FishyScam.sol",
  "abi": [
    {
      "inputs": [],
      "stateMutability": "nonpayable",
      "type": "constructor"
    },
    {
      "anonymous": false,
      "inputs": [
        {
          "indexed": true,
          "internalType": "address",
          "name": "account",
          "type": "address"
        },
        {
          "indexed": true,
          "internalType": "address",
          "name": "operator",
          "type": "address"
        },
        {
          "indexed": false,
          "internalType": "bool",
          "name": "approved",
          "type": "bool"
        }
      ],
      "name": "ApprovalForAll",
      "type": "event"
    },
    {
      "anonymous": false,
      "inputs": [
        {
          "indexed": true,
          "internalType": "address",
          "name": "operator",
          "type": "address"
        },
        {
          "indexed": true,
          "internalType": "address",
          "name": "from",
          "type": "address"
        },
        {
          "indexed": true,
          "internalType": "address",
          "name": "to",
          "type": "address"
        },
        {
          "indexed": false,
          "internalType": "uint256[]",
          "name": "ids",
          "type": "uint256[]"
        },
        {
          "indexed": false,
          "internalType": "uint256[]",
          "name": "values",
          "type": "uint256[]"
        }
      ],
      "name": "TransferBatch",
      "type": "event"
    },
    {
      "anonymous": false,
      "inputs": [
        {
          "indexed": true,
          "internalType": "address",
          "name": "operator",
          "type": "address"
        },
        {
          "indexed": true,
          "internalType": "address",
          "name": "from",
          "type": "address"
        },
        {
          "indexed": true,
          "internalType": "address",
          "name": "to",
          "type": "address"
        },
        {
          "indexed": false,
          "internalType": "uint256",
          "name": "id",
          "type": "uint256"
        },
        {
          "indexed": false,
          "internalType": "uint256",
          "name": "value",
          "type": "uint256"
        }
      ],
      "name": "TransferSingle",
      "type": "event"
    },
    {
      "anonymous": false,
      "inputs": [
        {
          "indexed": false,
          "internalType": "string",
          "name": "value",
          "type": "string"
        },
        {
          "indexed": true,
          "internalType": "uint256",
          "name": "id",
          "type": "uint256"
        }
      ],
      "name": "URI",
      "type": "event"
    },
    {
      "inputs": [],
      "name": "CONTRACT_URI",
      "outputs": [
        {
          "internalType": "string",
          "name": "",
          "type": "string"
        }
      ],
      "stateMutability": "view",
      "type": "function"
    },
    {
      "inputs": [],
      "name": "NFTRUITE",
      "outputs": [
        {
          "internalType": "uint256",
          "name": "",
          "type": "uint256"
        }
      ],
      "stateMutability": "view",
      "type": "function"
    },
    {
      "inputs": [],
      "name": "NFT_BIG_TRUITE",
      "outputs": [
        {
          "internalType": "uint256",
          "name": "",
          "type": "uint256"
        }
      ],
      "stateMutability": "view",
      "type": "function"
    },
    {
      "inputs": [],
      "name": "NFT_PA_SQUALE",
      "outputs": [
        {
          "internalType": "uint256",
          "name": "",
          "type": "uint256"
        }
      ],
      "stateMutability": "view",
      "type": "function"
    },
    {
      "inputs": [
        {
          "internalType": "string",
          "name": "_url",
          "type": "string"
        }
      ],
      "name": "addBigFish",
      "outputs": [],
      "stateMutability": "payable",
      "type": "function"
    },
    {
      "inputs": [
        {
          "internalType": "string",
          "name": "_url",
          "type": "string"
        }
      ],
      "name": "addPaSquale",
      "outputs": [],
      "stateMutability": "payable",
      "type": "function"
    },
    {
      "inputs": [
        {
          "internalType": "address",
          "name": "account",
          "type": "address"
        },
        {
          "internalType": "uint256",
          "name": "id",
          "type": "uint256"
        }
      ],
      "name": "balanceOf",
      "outputs": [
        {
          "internalType": "uint256",
          "name": "",
          "type": "uint256"
        }
      ],
      "stateMutability": "view",
      "type": "function"
    },
    {
      "inputs": [
        {
          "internalType": "address[]",
          "name": "accounts",
          "type": "address[]"
        },
        {
          "internalType": "uint256[]",
          "name": "ids",
          "type": "uint256[]"
        }
      ],
      "name": "balanceOfBatch",
      "outputs": [
        {
          "internalType": "uint256[]",
          "name": "",
          "type": "uint256[]"
        }
      ],
      "stateMutability": "view",
      "type": "function"
    },
    {
      "inputs": [
        {
          "internalType": "address",
          "name": "_from",
          "type": "address"
        },
        {
          "internalType": "uint256",
          "name": "_id",
          "type": "uint256"
        },
        {
          "internalType": "uint256",
          "name": "_amount",
          "type": "uint256"
        }
      ],
      "name": "burn",
      "outputs": [],
      "stateMutability": "nonpayable",
      "type": "function"
    },
    {
      "inputs": [],
      "name": "contractURI",
      "outputs": [
        {
          "internalType": "string",
          "name": "",
          "type": "string"
        }
      ],
      "stateMutability": "view",
      "type": "function"
    },
    {
      "inputs": [
        {
          "internalType": "string",
          "name": "_url",
          "type": "string"
        }
      ],
      "name": "fish",
      "outputs": [],
      "stateMutability": "payable",
      "type": "function"
    },
    {
      "inputs": [
        {
          "internalType": "string",
          "name": "_url",
          "type": "string"
        }
      ],
      "name": "getBigFishCount",
      "outputs": [
        {
          "internalType": "uint256",
          "name": "",
          "type": "uint256"
        }
      ],
      "stateMutability": "view",
      "type": "function"
    },
    {
      "inputs": [
        {
          "internalType": "string",
          "name": "_url",
          "type": "string"
        }
      ],
      "name": "getFishCount",
      "outputs": [
        {
          "internalType": "uint256",
          "name": "",
          "type": "uint256"
        }
      ],
      "stateMutability": "view",
      "type": "function"
    },
    {
      "inputs": [
        {
          "internalType": "string",
          "name": "_url",
          "type": "string"
        }
      ],
      "name": "getPaSqualeCount",
      "outputs": [
        {
          "internalType": "uint256",
          "name": "",
          "type": "uint256"
        }
      ],
      "stateMutability": "view",
      "type": "function"
    },
    {
      "inputs": [
        {
          "internalType": "address",
          "name": "account",
          "type": "address"
        },
        {
          "internalType": "address",
          "name": "operator",
          "type": "address"
        }
      ],
      "name": "isApprovedForAll",
      "outputs": [
        {
          "internalType": "bool",
          "name": "",
          "type": "bool"
        }
      ],
      "stateMutability": "view",
      "type": "function"
    },
    {
      "inputs": [
        {
          "internalType": "address",
          "name": "from",
          "type": "address"
        },
        {
          "internalType": "address",
          "name": "to",
          "type": "address"
        },
        {
          "internalType": "uint256[]",
          "name": "ids",
          "type": "uint256[]"
        },
        {
          "internalType": "uint256[]",
          "name": "amounts",
          "type": "uint256[]"
        },
        {
          "internalType": "bytes",
          "name": "data",
          "type": "bytes"
        }
      ],
      "name": "safeBatchTransferFrom",
      "outputs": [],
      "stateMutability": "nonpayable",
      "type": "function"
    },
    {
      "inputs": [
        {
          "internalType": "address",
          "name": "from",
          "type": "address"
        },
        {
          "internalType": "address",
          "name": "to",
          "type": "address"
        },
        {
          "internalType": "uint256",
          "name": "id",
          "type": "uint256"
        },
        {
          "internalType": "uint256",
          "name": "amount",
          "type": "uint256"
        },
        {
          "internalType": "bytes",
          "name": "data",
          "type": "bytes"
        }
      ],
      "name": "safeTransferFrom",
      "outputs": [],
      "stateMutability": "nonpayable",
      "type": "function"
    },
    {
      "inputs": [
        {
          "internalType": "address",
          "name": "operator",
          "type": "address"
        },
        {
          "internalType": "bool",
          "name": "approved",
          "type": "bool"
        }
      ],
      "name": "setApprovalForAll",
      "outputs": [],
      "stateMutability": "nonpayable",
      "type": "function"
    },
    {
      "inputs": [
        {
          "internalType": "uint256",
          "name": "thousandth",
          "type": "uint256"
        }
      ],
      "name": "setBigFishMintingChance",
      "outputs": [],
      "stateMutability": "nonpayable",
      "type": "function"
    },
    {
      "inputs": [
        {
          "internalType": "uint256",
          "name": "thousandth",
          "type": "uint256"
        }
      ],
      "name": "setFishMintingChance",
      "outputs": [],
      "stateMutability": "nonpayable",
      "type": "function"
    },
    {
      "inputs": [
        {
          "internalType": "uint256",
          "name": "thousandt",
          "type": "uint256"
        }
      ],
      "name": "setPaSqualeMintingChance",
      "outputs": [],
      "stateMutability": "nonpayable",
      "type": "function"
    },
    {
      "inputs": [
        {
          "internalType": "bytes4",
          "name": "interfaceId",
          "type": "bytes4"
        }
      ],
      "name": "supportsInterface",
      "outputs": [
        {
          "internalType": "bool",
          "name": "",
          "type": "bool"
        }
      ],
      "stateMutability": "view",
      "type": "function"
    },
    {
      "inputs": [
        {
          "internalType": "uint256",
          "name": "",
          "type": "uint256"
        }
      ],
      "name": "uri",
      "outputs": [
        {
          "internalType": "string",
          "name": "",
          "type": "string"
        }
      ],
      "stateMutability": "view",
      "type": "function"
    }
  ],
  "bytecode": "0x60806040526103e86003556103e86004556103e860055560006006553480156200002857600080fd5b506040518060400160405280601f81526020017f68747470733a2f2f6c65732d6d6567612e636f6f6c2f7b69647d2e6a736f6e0081525062000070816200007760201b60201c565b50620001a8565b80600290805190602001906200008f92919062000093565b5050565b828054620000a19062000143565b90600052602060002090601f016020900481019282620000c5576000855562000111565b82601f10620000e057805160ff191683800117855562000111565b8280016001018555821562000111579182015b8281111562000110578251825591602001919060010190620000f3565b5b50905062000120919062000124565b5090565b5b808211156200013f57600081600090555060010162000125565b5090565b600060028204905060018216806200015c57607f821691505b6020821081141562000173576200017262000179565b5b50919050565b7f4e487b7100000000000000000000000000000000000000000000000000000000600052602260045260246000fd5b613b0380620001b86000396000f3fe60806040526004361061013f5760003560e01c806356b4f673116100b6578063e6985b3c1161006f578063e6985b3c14610484578063e8a3d485146104a0578063e985e9c5146104cb578063f242432a14610508578063f5298aca14610531578063f83d19761461055a5761013f565b806356b4f673146103855780635f6eed24146103b057806372c4fda0146103cc57806393fea91514610409578063a22cb46514610432578063c42611821461045b5761013f565b806311bc3ebd1161010857806311bc3ebd14610251578063182ef46d1461027a578063199fe860146102a55780631a520107146102e25780632eb2c2d61461031f5780634e1273f4146103485761013f565b8062fdd58e1461014457806301ffc9a71461018157806306dc8c80146101be5780630e89341c146101e9578063101d362614610226575b600080fd5b34801561015057600080fd5b5061016b600480360381019061016691906125e9565b610576565b6040516101789190612f17565b60405180910390f35b34801561018d57600080fd5b506101a860048036038101906101a391906126e0565b61063f565b6040516101b59190612c93565b60405180910390f35b3480156101ca57600080fd5b506101d3610721565b6040516101e09190612f17565b60405180910390f35b3480156101f557600080fd5b50610210600480360381019061020b9190612777565b610726565b60405161021d9190612cae565b60405180910390f35b34801561023257600080fd5b5061023b6107ba565b6040516102489190612f17565b60405180910390f35b34801561025d57600080fd5b5061027860048036038101906102739190612777565b6107bf565b005b34801561028657600080fd5b5061028f6107c9565b60405161029c9190612f17565b60405180910390f35b3480156102b157600080fd5b506102cc60048036038101906102c79190612732565b6107ce565b6040516102d99190612f17565b60405180910390f35b3480156102ee57600080fd5b5061030960048036038101906103049190612732565b6107f9565b6040516103169190612f17565b60405180910390f35b34801561032b57600080fd5b506103466004803603810190610341919061245f565b610824565b005b34801561035457600080fd5b5061036f600480360381019061036a9190612674565b6108c5565b60405161037c9190612c3a565b60405180910390f35b34801561039157600080fd5b5061039a610a76565b6040516103a79190612cae565b60405180910390f35b6103ca60048036038101906103c59190612732565b610a92565b005b3480156103d857600080fd5b506103f360048036038101906103ee9190612732565b610b3d565b6040516104009190612f17565b60405180910390f35b34801561041557600080fd5b50610430600480360381019061042b9190612777565b610b68565b005b34801561043e57600080fd5b50610459600480360381019061045491906125ad565b610b72565b005b34801561046757600080fd5b50610482600480360381019061047d9190612777565b610b88565b005b61049e60048036038101906104999190612732565b610b92565b005b3480156104ac57600080fd5b506104b5610d0b565b6040516104c29190612cae565b60405180910390f35b3480156104d757600080fd5b506104f260048036038101906104ed9190612423565b610d82565b6040516104ff9190612c93565b60405180910390f35b34801561051457600080fd5b5061052f600480360381019061052a919061251e565b610e16565b005b34801561053d57600080fd5b5061055860048036038101906105539190612625565b610eb7565b005b610574600480360381019061056f9190612732565b610ec7565b005b60008073ffffffffffffffffffffffffffffffffffffffff168373ffffffffffffffffffffffffffffffffffffffff1614156105e7576040517f08c379a00000000000000000000000000000000000000000000000000000000081526004016105de90612dd7565b60405180910390fd5b60008083815260200190815260200160002060008473ffffffffffffffffffffffffffffffffffffffff1673ffffffffffffffffffffffffffffffffffffffff16815260200190815260200160002054905092915050565b60007fd9b67a26000000000000000000000000000000000000000000000000000000007bffffffffffffffffffffffffffffffffffffffffffffffffffffffff1916827bffffffffffffffffffffffffffffffffffffffffffffffffffffffff1916148061070a57507f0e89341c000000000000000000000000000000000000000000000000000000007bffffffffffffffffffffffffffffffffffffffffffffffffffffffff1916827bffffffffffffffffffffffffffffffffffffffffffffffffffffffff1916145b8061071a575061071982610f72565b5b9050919050565b600181565b6060600280546107359061321f565b80601f01602080910402602001604051908101604052809291908181526020018280546107619061321f565b80156107ae5780601f10610783576101008083540402835291602001916107ae565b820191906000526020600020905b81548152906001019060200180831161079157829003601f168201915b50505050509050919050565b600281565b8060058190555050565b600081565b6000600883836040516107e2929190612b24565b908152602001604051809103902054905092915050565b60006009838360405161080d929190612b24565b908152602001604051809103902054905092915050565b61082c610fdc565b73ffffffffffffffffffffffffffffffffffffffff168573ffffffffffffffffffffffffffffffffffffffff16148061087257506108718561086c610fdc565b610d82565b5b6108b1576040517f08c379a00000000000000000000000000000000000000000000000000000000081526004016108a890612d57565b60405180910390fd5b6108be8585858585610fe4565b5050505050565b6060815183511461090b576040517f08c379a000000000000000000000000000000000000000000000000000000000815260040161090290612e97565b60405180910390fd5b6000835167ffffffffffffffff81111561094e577f4e487b7100000000000000000000000000000000000000000000000000000000600052604160045260246000fd5b60405190808252806020026020018201604052801561097c5781602001602082028036833780820191505090505b50905060005b8451811015610a6b57610a158582815181106109c7577f4e487b7100000000000000000000000000000000000000000000000000000000600052603260045260246000fd5b6020026020010151858381518110610a08577f4e487b7100000000000000000000000000000000000000000000000000000000600052603260045260246000fd5b6020026020010151610576565b828281518110610a4e577f4e487b7100000000000000000000000000000000000000000000000000000000600052603260045260246000fd5b60200260200101818152505080610a6490613282565b9050610982565b508091505092915050565b604051806060016040528060238152602001613aab6023913981565b66038d7ea4c68000600a610aa691906130db565b341015610ae8576040517f08c379a0000000000000000000000000000000000000000000000000000000008152600401610adf90612eb7565b60405180910390fd5b600160078383604051610afc929190612b24565b908152602001604051809103902054610b159190613085565b60078383604051610b27929190612b24565b9081526020016040518091039020819055505050565b600060078383604051610b51929190612b24565b908152602001604051809103902054905092915050565b8060048190555050565b610b84610b7d610fdc565b8383611352565b5050565b8060038190555050565b66038d7ea4c680006001610ba691906130db565b341015610be8576040517f08c379a0000000000000000000000000000000000000000000000000000000008152600401610bdf90612d97565b60405180910390fd5b6000610bf483836114bf565b9050610c356040518060400160405280601581526020017f72616e646f6d20726573756c742025732f31303030000000000000000000000081525082611520565b600354811015610d065760045481108015610c705750600060078484604051610c5f929190612b24565b908152602001604051809103902054115b15610ce757610c9133600180604051806020016040528060008152506115bc565b600160078484604051610ca5929190612b24565b908152602001604051809103902054610cbe9190613135565b60078484604051610cd0929190612b24565b908152602001604051809103902081905550610d05565b610d043360006001604051806020016040528060008152506115bc565b5b5b505050565b6060610d646040518060400160405280601281526020017f636f6e7472616374205552492069732025730000000000000000000000000000815250604051806060016040528060238152602001613aab6023913961176d565b604051806060016040528060238152602001613aab60239139905090565b6000600160008473ffffffffffffffffffffffffffffffffffffffff1673ffffffffffffffffffffffffffffffffffffffff16815260200190815260200160002060008373ffffffffffffffffffffffffffffffffffffffff1673ffffffffffffffffffffffffffffffffffffffff16815260200190815260200160002060009054906101000a900460ff16905092915050565b610e1e610fdc565b73ffffffffffffffffffffffffffffffffffffffff168573ffffffffffffffffffffffffffffffffffffffff161480610e645750610e6385610e5e610fdc565b610d82565b5b610ea3576040517f08c379a0000000000000000000000000000000000000000000000000000000008152600401610e9a90612d57565b60405180910390fd5b610eb08585858585611809565b5050505050565b610ec2838383611aa5565b505050565b66038d7ea4c680006064610edb91906130db565b341015610f1d576040517f08c379a0000000000000000000000000000000000000000000000000000000008152600401610f1490612e57565b60405180910390fd5b600160098383604051610f31929190612b24565b908152602001604051809103902054610f4a9190613085565b60098383604051610f5c929190612b24565b9081526020016040518091039020819055505050565b60007f01ffc9a7000000000000000000000000000000000000000000000000000000007bffffffffffffffffffffffffffffffffffffffffffffffffffffffff1916827bffffffffffffffffffffffffffffffffffffffffffffffffffffffff1916149050919050565b600033905090565b8151835114611028576040517f08c379a000000000000000000000000000000000000000000000000000000000815260040161101f90612ed7565b60405180910390fd5b600073ffffffffffffffffffffffffffffffffffffffff168473ffffffffffffffffffffffffffffffffffffffff161415611098576040517f08c379a000000000000000000000000000000000000000000000000000000000815260040161108f90612df7565b60405180910390fd5b60006110a2610fdc565b90506110b2818787878787611cec565b60005b84518110156112af5760008582815181106110f9577f4e487b7100000000000000000000000000000000000000000000000000000000600052603260045260246000fd5b60200260200101519050600085838151811061113e577f4e487b7100000000000000000000000000000000000000000000000000000000600052603260045260246000fd5b60200260200101519050600080600084815260200190815260200160002060008b73ffffffffffffffffffffffffffffffffffffffff1673ffffffffffffffffffffffffffffffffffffffff168152602001908152602001600020549050818110156111df576040517f08c379a00000000000000000000000000000000000000000000000000000000081526004016111d690612e37565b60405180910390fd5b81810360008085815260200190815260200160002060008c73ffffffffffffffffffffffffffffffffffffffff1673ffffffffffffffffffffffffffffffffffffffff168152602001908152602001600020819055508160008085815260200190815260200160002060008b73ffffffffffffffffffffffffffffffffffffffff1673ffffffffffffffffffffffffffffffffffffffff16815260200190815260200160002060008282546112949190613085565b92505081905550505050806112a890613282565b90506110b5565b508473ffffffffffffffffffffffffffffffffffffffff168673ffffffffffffffffffffffffffffffffffffffff168273ffffffffffffffffffffffffffffffffffffffff167f4a39dc06d4c0dbc64b70af90fd698a233a518aa5d07e595d983b8c0526c8f7fb8787604051611326929190612c5c565b60405180910390a461133c818787878787611cf4565b61134a818787878787611cfc565b505050505050565b8173ffffffffffffffffffffffffffffffffffffffff168373ffffffffffffffffffffffffffffffffffffffff1614156113c1576040517f08c379a00000000000000000000000000000000000000000000000000000000081526004016113b890612e77565b60405180910390fd5b80600160008573ffffffffffffffffffffffffffffffffffffffff1673ffffffffffffffffffffffffffffffffffffffff16815260200190815260200160002060008473ffffffffffffffffffffffffffffffffffffffff1673ffffffffffffffffffffffffffffffffffffffff16815260200190815260200160002060006101000a81548160ff0219169083151502179055508173ffffffffffffffffffffffffffffffffffffffff168373ffffffffffffffffffffffffffffffffffffffff167f17307eab39ab6107e8899845ad3d59bd9653f200f220920489ca2b5937696c31836040516114b29190612c93565b60405180910390a3505050565b6000600660008154809291906114d490613282565b91905055506103e88383336006546040516020016114f59493929190612b3d565b6040516020818303038152906040528051906020012060001c61151891906132f9565b905092915050565b6115b88282604051602401611536929190612d07565b6040516020818303038152906040527f9710a9d0000000000000000000000000000000000000000000000000000000007bffffffffffffffffffffffffffffffffffffffffffffffffffffffff19166020820180517bffffffffffffffffffffffffffffffffffffffffffffffffffffffff8381831617835250505050611ee3565b5050565b600073ffffffffffffffffffffffffffffffffffffffff168473ffffffffffffffffffffffffffffffffffffffff16141561162c576040517f08c379a000000000000000000000000000000000000000000000000000000000815260040161162390612ef7565b60405180910390fd5b6000611636610fdc565b9050600061164385611f0c565b9050600061165085611f0c565b905061166183600089858589611cec565b8460008088815260200190815260200160002060008973ffffffffffffffffffffffffffffffffffffffff1673ffffffffffffffffffffffffffffffffffffffff16815260200190815260200160002060008282546116c09190613085565b925050819055508673ffffffffffffffffffffffffffffffffffffffff16600073ffffffffffffffffffffffffffffffffffffffff168473ffffffffffffffffffffffffffffffffffffffff167fc3d58168c5ae7397731d063d5bbf3d657854427343f4c083240f7aacaa2d0f62898960405161173e929190612f32565b60405180910390a461175583600089858589611cf4565b61176483600089898989611fd2565b50505050505050565b6118058282604051602401611783929190612cd0565b6040516020818303038152906040527f4b5c4277000000000000000000000000000000000000000000000000000000007bffffffffffffffffffffffffffffffffffffffffffffffffffffffff19166020820180517bffffffffffffffffffffffffffffffffffffffffffffffffffffffff8381831617835250505050611ee3565b5050565b600073ffffffffffffffffffffffffffffffffffffffff168473ffffffffffffffffffffffffffffffffffffffff161415611879576040517f08c379a000000000000000000000000000000000000000000000000000000000815260040161187090612df7565b60405180910390fd5b6000611883610fdc565b9050600061189085611f0c565b9050600061189d85611f0c565b90506118ad838989858589611cec565b600080600088815260200190815260200160002060008a73ffffffffffffffffffffffffffffffffffffffff1673ffffffffffffffffffffffffffffffffffffffff16815260200190815260200160002054905085811015611944576040517f08c379a000000000000000000000000000000000000000000000000000000000815260040161193b90612e37565b60405180910390fd5b85810360008089815260200190815260200160002060008b73ffffffffffffffffffffffffffffffffffffffff1673ffffffffffffffffffffffffffffffffffffffff168152602001908152602001600020819055508560008089815260200190815260200160002060008a73ffffffffffffffffffffffffffffffffffffffff1673ffffffffffffffffffffffffffffffffffffffff16815260200190815260200160002060008282546119f99190613085565b925050819055508773ffffffffffffffffffffffffffffffffffffffff168973ffffffffffffffffffffffffffffffffffffffff168573ffffffffffffffffffffffffffffffffffffffff167fc3d58168c5ae7397731d063d5bbf3d657854427343f4c083240f7aacaa2d0f628a8a604051611a76929190612f32565b60405180910390a4611a8c848a8a86868a611cf4565b611a9a848a8a8a8a8a611fd2565b505050505050505050565b600073ffffffffffffffffffffffffffffffffffffffff168373ffffffffffffffffffffffffffffffffffffffff161415611b15576040517f08c379a0000000000000000000000000000000000000000000000000000000008152600401611b0c90612e17565b60405180910390fd5b6000611b1f610fdc565b90506000611b2c84611f0c565b90506000611b3984611f0c565b9050611b5983876000858560405180602001604052806000815250611cec565b600080600087815260200190815260200160002060008873ffffffffffffffffffffffffffffffffffffffff1673ffffffffffffffffffffffffffffffffffffffff16815260200190815260200160002054905084811015611bf0576040517f08c379a0000000000000000000000000000000000000000000000000000000008152600401611be790612db7565b60405180910390fd5b84810360008088815260200190815260200160002060008973ffffffffffffffffffffffffffffffffffffffff1673ffffffffffffffffffffffffffffffffffffffff16815260200190815260200160002081905550600073ffffffffffffffffffffffffffffffffffffffff168773ffffffffffffffffffffffffffffffffffffffff168573ffffffffffffffffffffffffffffffffffffffff167fc3d58168c5ae7397731d063d5bbf3d657854427343f4c083240f7aacaa2d0f628989604051611cbd929190612f32565b60405180910390a4611ce384886000868660405180602001604052806000815250611cf4565b50505050505050565b505050505050565b505050505050565b611d1b8473ffffffffffffffffffffffffffffffffffffffff166121b9565b15611edb578373ffffffffffffffffffffffffffffffffffffffff1663bc197c8187878686866040518663ffffffff1660e01b8152600401611d61959493929190612b78565b602060405180830381600087803b158015611d7b57600080fd5b505af1925050508015611dac57506040513d601f19601f82011682018060405250810190611da99190612709565b60015b611e5257611db86133e6565b806308c379a01415611e155750611dcd6139b8565b80611dd85750611e17565b806040517f08c379a0000000000000000000000000000000000000000000000000000000008152600401611e0c9190612cae565b60405180910390fd5b505b6040517f08c379a0000000000000000000000000000000000000000000000000000000008152600401611e4990612d37565b60405180910390fd5b63bc197c8160e01b7bffffffffffffffffffffffffffffffffffffffffffffffffffffffff1916817bffffffffffffffffffffffffffffffffffffffffffffffffffffffff191614611ed9576040517f08c379a0000000000000000000000000000000000000000000000000000000008152600401611ed090612d77565b60405180910390fd5b505b505050505050565b60008151905060006a636f6e736f6c652e6c6f679050602083016000808483855afa5050505050565b60606000600167ffffffffffffffff811115611f51577f4e487b7100000000000000000000000000000000000000000000000000000000600052604160045260246000fd5b604051908082528060200260200182016040528015611f7f5781602001602082028036833780820191505090505b5090508281600081518110611fbd577f4e487b7100000000000000000000000000000000000000000000000000000000600052603260045260246000fd5b60200260200101818152505080915050919050565b611ff18473ffffffffffffffffffffffffffffffffffffffff166121b9565b156121b1578373ffffffffffffffffffffffffffffffffffffffff1663f23a6e6187878686866040518663ffffffff1660e01b8152600401612037959493929190612be0565b602060405180830381600087803b15801561205157600080fd5b505af192505050801561208257506040513d601f19601f8201168201806040525081019061207f9190612709565b60015b6121285761208e6133e6565b806308c379a014156120eb57506120a36139b8565b806120ae57506120ed565b806040517f08c379a00000000000000000000000000000000000000000000000000000000081526004016120e29190612cae565b60405180910390fd5b505b6040517f08c379a000000000000000000000000000000000000000000000000000000000815260040161211f90612d37565b60405180910390fd5b63f23a6e6160e01b7bffffffffffffffffffffffffffffffffffffffffffffffffffffffff1916817bffffffffffffffffffffffffffffffffffffffffffffffffffffffff1916146121af576040517f08c379a00000000000000000000000000000000000000000000000000000000081526004016121a690612d77565b60405180910390fd5b505b505050505050565b6000808273ffffffffffffffffffffffffffffffffffffffff163b119050919050565b60006121ef6121ea84612f80565b612f5b565b9050808382526020820190508285602086028201111561220e57600080fd5b60005b8581101561223e578161222488826122f2565b845260208401935060208301925050600181019050612211565b5050509392505050565b600061225b61225684612fac565b612f5b565b9050808382526020820190508285602086028201111561227a57600080fd5b60005b858110156122aa5781612290888261240e565b84526020840193506020830192505060018101905061227d565b5050509392505050565b60006122c76122c284612fd8565b612f5b565b9050828152602081018484840111156122df57600080fd5b6122ea8482856131dd565b509392505050565b60008135905061230181613a4e565b92915050565b600082601f83011261231857600080fd5b81356123288482602086016121dc565b91505092915050565b600082601f83011261234257600080fd5b8135612352848260208601612248565b91505092915050565b60008135905061236a81613a65565b92915050565b60008135905061237f81613a7c565b92915050565b60008151905061239481613a7c565b92915050565b600082601f8301126123ab57600080fd5b81356123bb8482602086016122b4565b91505092915050565b60008083601f8401126123d657600080fd5b8235905067ffffffffffffffff8111156123ef57600080fd5b60208301915083600182028301111561240757600080fd5b9250929050565b60008135905061241d81613a93565b92915050565b6000806040838503121561243657600080fd5b6000612444858286016122f2565b9250506020612455858286016122f2565b9150509250929050565b600080600080600060a0868803121561247757600080fd5b6000612485888289016122f2565b9550506020612496888289016122f2565b945050604086013567ffffffffffffffff8111156124b357600080fd5b6124bf88828901612331565b935050606086013567ffffffffffffffff8111156124dc57600080fd5b6124e888828901612331565b925050608086013567ffffffffffffffff81111561250557600080fd5b6125118882890161239a565b9150509295509295909350565b600080600080600060a0868803121561253657600080fd5b6000612544888289016122f2565b9550506020612555888289016122f2565b94505060406125668882890161240e565b93505060606125778882890161240e565b925050608086013567ffffffffffffffff81111561259457600080fd5b6125a08882890161239a565b9150509295509295909350565b600080604083850312156125c057600080fd5b60006125ce858286016122f2565b92505060206125df8582860161235b565b9150509250929050565b600080604083850312156125fc57600080fd5b600061260a858286016122f2565b925050602061261b8582860161240e565b9150509250929050565b60008060006060848603121561263a57600080fd5b6000612648868287016122f2565b93505060206126598682870161240e565b925050604061266a8682870161240e565b9150509250925092565b6000806040838503121561268757600080fd5b600083013567ffffffffffffffff8111156126a157600080fd5b6126ad85828601612307565b925050602083013567ffffffffffffffff8111156126ca57600080fd5b6126d685828601612331565b9150509250929050565b6000602082840312156126f257600080fd5b600061270084828501612370565b91505092915050565b60006020828403121561271b57600080fd5b600061272984828501612385565b91505092915050565b6000806020838503121561274557600080fd5b600083013567ffffffffffffffff81111561275f57600080fd5b61276b858286016123c4565b92509250509250929050565b60006020828403121561278957600080fd5b60006127978482850161240e565b91505092915050565b60006127ac8383612aef565b60208301905092915050565b6127c181613169565b82525050565b6127d86127d382613169565b6132cb565b82525050565b60006127e982613019565b6127f38185613047565b93506127fe83613009565b8060005b8381101561282f57815161281688826127a0565b97506128218361303a565b925050600181019050612802565b5085935050505092915050565b6128458161317b565b82525050565b600061285682613024565b6128608185613058565b93506128708185602086016131ec565b61287981613408565b840191505092915050565b6000612890838561307a565b935061289d8385846131dd565b82840190509392505050565b60006128b48261302f565b6128be8185613069565b93506128ce8185602086016131ec565b6128d781613408565b840191505092915050565b60006128ef603483613069565b91506128fa82613433565b604082019050919050565b6000612912602f83613069565b915061291d82613482565b604082019050919050565b6000612935602883613069565b9150612940826134d1565b604082019050919050565b6000612958604c83613069565b915061296382613520565b606082019050919050565b600061297b602483613069565b915061298682613595565b604082019050919050565b600061299e602a83613069565b91506129a9826135e4565b604082019050919050565b60006129c1602583613069565b91506129cc82613633565b604082019050919050565b60006129e4602383613069565b91506129ef82613682565b604082019050919050565b6000612a07602a83613069565b9150612a12826136d1565b604082019050919050565b6000612a2a609483613069565b9150612a3582613720565b60a082019050919050565b6000612a4d602983613069565b9150612a58826137e1565b604082019050919050565b6000612a70602983613069565b9150612a7b82613830565b604082019050919050565b6000612a93606883613069565b9150612a9e8261387f565b608082019050919050565b6000612ab6602883613069565b9150612ac18261391a565b604082019050919050565b6000612ad9602183613069565b9150612ae482613969565b604082019050919050565b612af8816131d3565b82525050565b612b07816131d3565b82525050565b612b1e612b19826131d3565b6132ef565b82525050565b6000612b31828486612884565b91508190509392505050565b6000612b4a828688612884565b9150612b5682856127c7565b601482019150612b668284612b0d565b60208201915081905095945050505050565b600060a082019050612b8d60008301886127b8565b612b9a60208301876127b8565b8181036040830152612bac81866127de565b90508181036060830152612bc081856127de565b90508181036080830152612bd4818461284b565b90509695505050505050565b600060a082019050612bf560008301886127b8565b612c0260208301876127b8565b612c0f6040830186612afe565b612c1c6060830185612afe565b8181036080830152612c2e818461284b565b90509695505050505050565b60006020820190508181036000830152612c5481846127de565b905092915050565b60006040820190508181036000830152612c7681856127de565b90508181036020830152612c8a81846127de565b90509392505050565b6000602082019050612ca8600083018461283c565b92915050565b60006020820190508181036000830152612cc881846128a9565b905092915050565b60006040820190508181036000830152612cea81856128a9565b90508181036020830152612cfe81846128a9565b90509392505050565b60006040820190508181036000830152612d2181856128a9565b9050612d306020830184612afe565b9392505050565b60006020820190508181036000830152612d50816128e2565b9050919050565b60006020820190508181036000830152612d7081612905565b9050919050565b60006020820190508181036000830152612d9081612928565b9050919050565b60006020820190508181036000830152612db08161294b565b9050919050565b60006020820190508181036000830152612dd08161296e565b9050919050565b60006020820190508181036000830152612df081612991565b9050919050565b60006020820190508181036000830152612e10816129b4565b9050919050565b60006020820190508181036000830152612e30816129d7565b9050919050565b60006020820190508181036000830152612e50816129fa565b9050919050565b60006020820190508181036000830152612e7081612a1d565b9050919050565b60006020820190508181036000830152612e9081612a40565b9050919050565b60006020820190508181036000830152612eb081612a63565b9050919050565b60006020820190508181036000830152612ed081612a86565b9050919050565b60006020820190508181036000830152612ef081612aa9565b9050919050565b60006020820190508181036000830152612f1081612acc565b9050919050565b6000602082019050612f2c6000830184612afe565b92915050565b6000604082019050612f476000830185612afe565b612f546020830184612afe565b9392505050565b6000612f65612f76565b9050612f718282613251565b919050565b6000604051905090565b600067ffffffffffffffff821115612f9b57612f9a6133b7565b5b602082029050602081019050919050565b600067ffffffffffffffff821115612fc757612fc66133b7565b5b602082029050602081019050919050565b600067ffffffffffffffff821115612ff357612ff26133b7565b5b612ffc82613408565b9050602081019050919050565b6000819050602082019050919050565b600081519050919050565b600081519050919050565b600081519050919050565b6000602082019050919050565b600082825260208201905092915050565b600082825260208201905092915050565b600082825260208201905092915050565b600081905092915050565b6000613090826131d3565b915061309b836131d3565b9250827fffffffffffffffffffffffffffffffffffffffffffffffffffffffffffffffff038211156130d0576130cf61332a565b5b828201905092915050565b60006130e6826131d3565b91506130f1836131d3565b9250817fffffffffffffffffffffffffffffffffffffffffffffffffffffffffffffffff048311821515161561312a5761312961332a565b5b828202905092915050565b6000613140826131d3565b915061314b836131d3565b92508282101561315e5761315d61332a565b5b828203905092915050565b6000613174826131b3565b9050919050565b60008115159050919050565b60007fffffffff0000000000000000000000000000000000000000000000000000000082169050919050565b600073ffffffffffffffffffffffffffffffffffffffff82169050919050565b6000819050919050565b82818337600083830152505050565b60005b8381101561320a5780820151818401526020810190506131ef565b83811115613219576000848401525b50505050565b6000600282049050600182168061323757607f821691505b6020821081141561324b5761324a613388565b5b50919050565b61325a82613408565b810181811067ffffffffffffffff82111715613279576132786133b7565b5b80604052505050565b600061328d826131d3565b91507fffffffffffffffffffffffffffffffffffffffffffffffffffffffffffffffff8214156132c0576132bf61332a565b5b600182019050919050565b60006132d6826132dd565b9050919050565b60006132e882613419565b9050919050565b6000819050919050565b6000613304826131d3565b915061330f836131d3565b92508261331f5761331e613359565b5b828206905092915050565b7f4e487b7100000000000000000000000000000000000000000000000000000000600052601160045260246000fd5b7f4e487b7100000000000000000000000000000000000000000000000000000000600052601260045260246000fd5b7f4e487b7100000000000000000000000000000000000000000000000000000000600052602260045260246000fd5b7f4e487b7100000000000000000000000000000000000000000000000000000000600052604160045260246000fd5b600060033d11156134055760046000803e613402600051613426565b90505b90565b6000601f19601f8301169050919050565b60008160601b9050919050565b60008160e01c9050919050565b7f455243313135353a207472616e7366657220746f206e6f6e204552433131353560008201527f526563656976657220696d706c656d656e746572000000000000000000000000602082015250565b7f455243313135353a2063616c6c6572206973206e6f7420746f6b656e206f776e60008201527f6572206e6f7220617070726f7665640000000000000000000000000000000000602082015250565b7f455243313135353a204552433131353552656365697665722072656a6563746560008201527f6420746f6b656e73000000000000000000000000000000000000000000000000602082015250565b7f496e73756666696369656e74207061796d656e74203a20706179206174206c6560008201527f617374207b4d494e5f5041594d454e545f545255495445202a2028554e49542060208201527f2f204554485f554e4954297d0000000000000000000000000000000000000000604082015250565b7f455243313135353a206275726e20616d6f756e7420657863656564732062616c60008201527f616e636500000000000000000000000000000000000000000000000000000000602082015250565b7f455243313135353a2061646472657373207a65726f206973206e6f742061207660008201527f616c6964206f776e657200000000000000000000000000000000000000000000602082015250565b7f455243313135353a207472616e7366657220746f20746865207a65726f20616460008201527f6472657373000000000000000000000000000000000000000000000000000000602082015250565b7f455243313135353a206275726e2066726f6d20746865207a65726f206164647260008201527f6573730000000000000000000000000000000000000000000000000000000000602082015250565b7f455243313135353a20696e73756666696369656e742062616c616e636520666f60008201527f72207472616e7366657200000000000000000000000000000000000000000000602082015250565b7f496e73756666696369656e74207061796d656e7420666f7220616464696e672060008201527f61205061537175616c65203a20496e73756666696369656e74207061796d656e60208201527f7420666f7220616464696e67206269672066697368203a20706179206174206c60408201527f65617374207b4d494e5f5041594d454e545f4144445f50415f535155414c452060608201527f2a2028554e4954202f204554485f554e4954297d000000000000000000000000608082015250565b7f455243313135353a2073657474696e6720617070726f76616c2073746174757360008201527f20666f722073656c660000000000000000000000000000000000000000000000602082015250565b7f455243313135353a206163636f756e747320616e6420696473206c656e67746860008201527f206d69736d617463680000000000000000000000000000000000000000000000602082015250565b7f496e73756666696369656e74207061796d656e7420666f7220616464696e672060008201527f6269672066697368203a20706179206174206c65617374207b4d494e5f50415960208201527f4d454e545f4144445f4249475f545255495445202a2028554e4954202f20455460408201527f485f554e4954297d000000000000000000000000000000000000000000000000606082015250565b7f455243313135353a2069647320616e6420616d6f756e7473206c656e6774682060008201527f6d69736d61746368000000000000000000000000000000000000000000000000602082015250565b7f455243313135353a206d696e7420746f20746865207a65726f2061646472657360008201527f7300000000000000000000000000000000000000000000000000000000000000602082015250565b600060443d10156139c857613a4b565b6139d0612f76565b60043d036004823e80513d602482011167ffffffffffffffff821117156139f8575050613a4b565b808201805167ffffffffffffffff811115613a165750505050613a4b565b80602083010160043d038501811115613a33575050505050613a4b565b613a4282602001850186613251565b82955050505050505b90565b613a5781613169565b8114613a6257600080fd5b50565b613a6e8161317b565b8114613a7957600080fd5b50565b613a8581613187565b8114613a9057600080fd5b50565b613a9c816131d3565b8114613aa757600080fd5b5056fe68747470733a2f2f6c65732d6d6567612e636f6f6c2f6d657461646174612e6a736f6ea2646970667358221220312b022dc3f2ace7b45068e074e1fe0da23df1b4ea0f86fd6f2faebd88ce138a64736f6c63430008040033",
  "linkReferences": {},
  "deployedLinkReferences": {}
}